:020000040800F2
:10000000E8760020990200085128000849280008D5
:100010004D2800086D270008B72D000800000000DB
:100020000000000000000000000000000D2A000891
:100030007127000800000000E1280008252B0008B7
:10004000B3020008B3020008B3020008B3020008BC
:10005000B3020008B3020008B3020008B3020008AC
:10006000B3020008B3020008B3020008B30200089C
:10007000B3020008B3020008B3020008B30200088C
:10008000B3020008B3020008B3020008B30200087C
:10009000B3020008B3020008B3020008B30200086C
:1000A000B3020008B3020008B3020008B30200085C
:1000B000B3020008B3020008B3020008B30200084C
:1000C000B3020008B3020008B3020008B30200083C
:1000D000B3020008912B0008B3020008B302000825
:1000E000B3020008B3020008B3020008B30200081C
:1000F000B3020008B3020008B3020008B30200080C
:10010000B3020008B3020008B3020008B3020008FB
:10011000B3020008B3020008B3020008B3020008EB
:10012000B3020008B3020008B3020008B3020008DB
:10013000B3020008B3020008B3020008B3020008CB
:10014000B3020008B3020008B3020008B3020008BB
:10015000B3020008B3020008B3020008B3020008AB
:10016000B3020008B3020008B3020008B30200089B
:10017000B3020008B3020008B3020008B30200088B
:10018000B3020008B302000800F002F800F075F8AE
:100190000AA090E8000C82448344AAF10107DA45E2
:1001A00001D100F06AF8AFF2090EBAE80F0013F0BF
:1001B000010F18BFFB1A43F001031847080B020098
:1001C000280B02000A444FF0000C10F8013B13F01A
:1001D000070408BF10F8014B1D1108BF10F8015BA0
:1001E000641E05D010F8016B641E01F8016BF9D193
:1001F00013F0080F1EBF10F8014BAD1C0C1B09D1EA
:100200006D1E58BF01F801CBFAD505E014F8016B5B
:1002100001F8016B6D1EF9D59142D6D370470000ED
:100220000023002400250026103A28BF78C1FBD8FF
:10023000520728BF30C148BF0B607047662909F0DC
:100240000985642900F0A480732900F07D850020D1
:1002500070471FB509F0F1FC00F0ECFD0400002030
:10026000002109F05BFA401C60600020002109F0C9
:100270006BFAE0601FBD10B510BD00F053FF1146D2
:10028000FFF7E7FF06F09EFD00F09AFF03B4FFF7CB
:10029000F2FF03BC04F0DFFD09488047094800472E
:1002A000FEE7FEE7FEE7FEE7FEE7FEE7FEE7FEE726
:1002B000FEE7FEE704480549054A064B7047000083
:1002C000292B000889010008E8700020E87600204A
:1002D000E8720020E8720020704710B54C1084EAE4
:1002E000530404D54042C1F1000138BF491E1B42EE
:1002F00004D55242C3F1000338BF5B1E00F028FA58
:1003000014F0804F04D04042C1F1000138BF491EB3
:1003100014F0004F04D05242C3F1000338BF5B1EFB
:1003200010BD00000FB4044910B503AA029800F0F4
:100330000FFD10BC5DF814FB2C00002070B50C46BE
:100340000546012A05D02878800600D5EA690023F1
:1003500002E0012305E05B1C934202D2E05C00282E
:10036000F9D1A869E618C01AA861286A1844286259
:100370002846AFF3008004E0D5E9012114F8010B11
:100380009047B442F8D32846AFF3008070BD000018
:100390002DE9F0410646002410687529314616A55E
:1003A00010D0AFF30080002802DA404213A507E026
:1003B00031688A0701D512A502E0490704D511A5C5
:1003C000012401E0AFF3008000210A2206F1240796
:1003D00009E0B0FBF2FCB0FBF2F302FB1C00303092
:1003E00078541846491C0028F3D123462A46304643
:1003F000BDE8F04100F02EBA000000002D00000022
:100400002B000000200000002DE9F0474FF0000A0B
:1004100089460446C0F820A02046E16888470028A5
:1004200076D0252806D0D4E901219047206A401CC7
:100430002062F1E7E168204600258847C4F81CA047
:1004400006460027C4F818A02A2E09D0304603F02B
:10045000E9F938B304EB8708303EC8F8186019E0B2
:1004600059F8041B204604EB87029161E168884734
:10047000012F064618D1E069002820DA25F0200572
:100480001DE0D8F8180000EB800006EB4000303883
:10049000C8F818002046E1688847064603F0C2F90C
:1004A0000028EED1012F0AD02E2E08D12046E16877
:1004B00088477F1C0646022F45F02005C4DBA06953
:1004C000002803DA404245F00105A061E80701D0A9
:1004D00025F01005B6B1A6F14100192802D8203642
:1004E00045F400654A463146204625604D46FFF7F3
:1004F000A5FE58B1012806D0ED1D25F0070000F13A
:10050000080989E704E005F1040985E730468AE730
:10051000206ABDE8F0872DE9F04791460F468046F6
:100520000446002614F8015B2DB100F005F90068BF
:10053000405DC007F6D12B2D02D02D2D18D0641EA2
:100540004A463946204600F015FC27B13968A142D9
:1005500001D1C7F800804FF0020471050BD540426D
:10056000002803DD00F0F0F80460A007BDE8F08784
:1005700046F48066E4E70028F8DA00F0E5F8046065
:100580006FF00040F2E7401ECAB210F8011F8A4225
:1005900002D00029F9D10020704740EA010310B5CC
:1005A0009B070FD1042A0DD310C808C9121F9C4203
:1005B000F8D020BA19BA884201D9012010BD4FF0F5
:1005C000FF3010BD1AB1D30703D0521C07E0002042
:1005D00010BD10F8013B11F8014B1B1B07D110F89F
:1005E000013B11F8014B1B1B01D1921EF1D11846A2
:1005F00010BD032A40F2308010F0030C00F015808B
:1006000011F8013BBCF1020F624498BF11F801CB15
:1006100000F8013B38BF11F8013BA2F1040298BF7A
:1006200000F801CB38BF00F8013B11F0030300F0E4
:100630002580083AC0F0088051F8043B083A51F888
:1006400004CBA0E80810F5E7121D5CBF51F8043B8D
:1006500040F8043BAFF30080D20724BF11F8013B00
:1006600011F801CB48BF11F8012B24BF00F8013B62
:1006700000F801CB48BF00F8012B704710B5203AB5
:10068000C0F00B80B1E81850203AA0E81850B1E84B
:100690001850A0E81850BFF4F5AF5FEA027C24BF01
:1006A000B1E81850A0E8185044BF18C918C0BDE8F8
:1006B00010405FEA827C24BF51F8043B40F8043BC1
:1006C00008BF7047D20728BF31F8023B48BF11F876
:1006D000012B28BF20F8023B48BF00F8012B7047D0
:1006E0004FF0000200B5134694469646203922BFCB
:1006F000A0E80C50A0E80C50B1F12001BFF4F7AF16
:10070000090728BFA0E80C5048BF0CC05DF804EBF7
:10071000890028BF40F8042B08BF704748BF20F865
:10072000022B11F0804F18BF00F8012B7047704763
:10073000704770477047000010B500F07BFB001D4C
:1007400010BD00BFD98F00000048704784700020A2
:1007500053EA020C00F069802DE9F04B4FF00006DF
:10076000002B1FBFB3FA83F503FA05F424FA05F64C
:100770005E4012BF1643B2FA82F502FA05F4C5F1E3
:1007800020051EBF22FA05FC44EA0C04203556EA77
:10079000044C4FEA144418BF641C4FF000084FF09B
:1007A0000009904271EB030C39D3002919BFB1FA4B
:1007B00081F701FA07F6B0FA80F700FA07F6C7F1F9
:1007C00020071EBF20FA07FC46EA0C062037B6FBBE
:1007D000F4FCA7EB0507103F07F01F0BCBF1200639
:1007E0000CFA0BFB2CFA06F644BFB3460026202F6A
:1007F000A4BF5E464FF0000B5BEA060C08BF4FF04B
:10080000010B19EB0B09ABFB027C48EB0608C01B84
:1008100006FB02CC0BFB03CC71EB0C01C1E70B46D2
:10082000024641464846BDE8F08B13B54FF0000044
:100830004FF00001AFF30080BDE81C40704710B5D9
:10084000FFF782FF006810BD10B50446FFF77CFF7C
:10085000046010BD2DE9F0470D46994692460446C6
:1008600000F124080168880604D5E06921F0100130
:10087000216000E00120A84201DD471B00E00027C5
:10088000A1697A1902EB0900081AA0612078C00654
:1008900002D42046AFF30080002608E0D4E901210D
:1008A0001AF806009047206A401C761C20624E45CC
:1008B000F4DB2078C0060AD52046AFF3008006E0BE
:1008C000D4E9012130209047206A401C2062381E64
:1008D000A7F10107F4DC07E0D4E9012118F80500CD
:1008E0009047206A401C2062281EA5F10105F3DC18
:1008F0002046AFF300802078000602D50220BDE834
:10090000F0870120FBE770472DE9FF4F0C461E469C
:100910004FF0FF378BB0D2E90001DDF860800A901C
:100920008A46C1F30A5505B93D46002108464FF0F5
:100930000000BAF1000F00F4400005DA00EB80007F
:100940004FF4400101EA50004FEA9059B9F1010F0C
:1009500000DDB9460A9850EA4A000ED044F610501D
:10096000A5F2FF3545432F14B8F1000F1ED0754294
:10097000291E1EDDC9F100021CE0B8F1010F4FF085
:10098000000001D0302103E0F24305E02154401C77
:10099000B042FBDB30460022002121540B99C1F804
:1009A0000880C1E900200FB0BDE8F08FBD1B6D1CB1
:1009B000DEE74A4600DA694206A800F03DFB06ABD6
:1009C00093E8070003AB83E8070050460A9901F05B
:1009D00098FA8DE80700A0F500501F3800900398A2
:1009E000002D0ADD42F21F014A460844002303A9F4
:1009F0000390684601F044FD09E0A0F500504A4626
:100A00001F38002303A90390684601F063FD8DE8B9
:100A100007000004000C03D04FF0FF30410800E055
:100A20001046B8F1000F03D00022009215461EE0D8
:100A3000751E05D400F002FA303262556D1EF9D5EC
:100A4000B3460122084302D000227F1C04E0207834
:100A5000302801D100227F1E002A099784D01DE092
:100A6000112D07DA00F0EAF9303262556D1C50EAB8
:100A70000102F5D1084302D00098C8B10EE0002170
:100A8000681E05E0235C625C63542254401E491CCE
:100A90008142F7DBAB46A81B401E0990002004F8FA
:100AA0000B000B98099AC0F80880C0E9002B7AE780
:100AB00011264FF0000857E72DE9F04F884604460D
:100AC000D21D22F0070191B0D1E90001CDE90A0160
:100AD00002F073F902460B98C00F01D02D2007E0F9
:100AE0002068810701D52B2002E0202101EAC00007
:100AF000032A099001D0072A05DB03464146204618
:100B000000F0FAF90BE12078800601D5E06900E0F9
:100B10000620B8F1650F814606D0B8F1660F18D0EF
:100B2000B8F1670F70D131E00020B9F1110F0090DA
:100B300001DB112301E009F101030AAA01A90CA8B4
:100B4000FFF7E2FEDDE90C70002609F1010583469E
:100B500047E001204B4600904FF000470AAA01A948
:100B60000CA8FFF7D1FEDDE90DB00C995D4600261B
:100B700010B909F101000D18B9EB050003D4C0F15B
:100B8000FF3609F10105A5EB09002BE0B9F1010FD2
:100B900001DA4FF001090020B9F1110F0090484629
:100BA00001DD112300E003460AAA01A90CA8FFF702
:100BB000ABFEDDE90C704D46002683462078000729
:100BC0000AD4AB4500DA5D4601A8012D04DD4119C8
:100BD00011F8011C302907D04F4502DA17F1040F34
:100BE00004DA012082460FE06D1EEEE7002F02DCE2
:100BF000ED1B3E4403E0781CA84200DD7D1CB81BC1
:100C000000F1010A4FF000472078000703D4AA45FD
:100C100001DB4FF0FF3A0021B7F1004F0DF143081F
:100C20008DF8431024D002202B23002F01DA7F42BD
:100C30002D230A21021EA0F1010000DC5FB197FB09
:100C4000F1FC97FBF1F201FB1C7C17460CF1300C18
:100C500008F801CDEEE7A8F101000370218809052D
:100C600001D5452100E06521A0F1010800F8011C33
:100C700009980FA9A1EB0807FF1D00B10120411938
:100C800001EBEA70A1693844081A401EA06120787F
:100C9000C00602D42046AFF30080099828B1D4E9F9
:100CA00001219047206A401C20622078C00622D58E
:100CB0002046AFF300801EE0002E04DBB34502DDCA
:100CC00001A8805D00E03020D4E901219047206A2E
:100CD000401C2062761CAAF101005FEA000A0AD1DA
:100CE00000F0A8F8C0680168405CD4E90121904791
:100CF000206A401C2062281EA5F10105DCDC07E00B
:100D0000D4E9012118F8010B9047206A401C2062A9
:100D1000381EA7F10107F3DC2046AFF30080032063
:100D200011B041E610B5436913B1AFF3008001E0A3
:100D3000FFF704FB012010BD127800F124010A70B6
:100D400000224A700122EDE711684FF0FF32E9E717
:100D5000074B70B50D467B4400F0BBF804462846AF
:100D600000F0DCF910B14FF0FF3070BD204670BDCF
:100D7000B35E00002DE9F05F824615468B460027E2
:100D80000AF10104B9460078302801D09DB113E082
:100D900014F8010B0127782803D0582801D045B159
:100DA0000AE00DB1102D07D1002714F8010B102512
:100DB00002E0082500E00A250026B0460EE005FB0B
:100DC000080005FB06F101271FFA80F801EB104629
:100DD000B6F5803F00D3B94614F8010B294600F060
:100DE000CBF80028EBDABBF1000F05D00FB1641E81
:100DF00000E05446CBF80040B9F1000F06D0FFF7F1
:100E0000A3FC02210160C81EBDE8F09F48EA06402D
:100E1000FAE77CB5054600236846CDE9003300F0CB
:100E2000D7F86946284602F061FC7CBD004870474F
:100E30008470002000487047A470002030B5B0F1E5
:100E40000A024FEA900E71F100034EEA817EB0EB88
:100E50000E0061EB91014FEA101E4EEA017E10EB8D
:100E60000E0041EB11114FEA102E4EEA016E10EB0D
:100E70000E0041EB11214FEA104E4EEA014E10EBED
:100E80000E0041EB1141401841F100014FEAD00042
:100E900040EA41704FEAD10110EB80054FEA81042E
:100EA00044EA907444EB01046D1944EB0404521BB2
:100EB000A3414FF0000348BF0A3200D530BD401CAB
:100EC00041F1000130BD000001694A1C026108784F
:100ED000704700B58FB0CDE901310021059105497A
:100EE0007944CDE9031011466846FFF78DFA0FB03B
:100EF00000BD0000E5FFFFFF2DE9F0411F4604465D
:100F000003260168072A01F4006004DB08B116A576
:100F100005E016A503E008B115A500E015A521F030
:100F200010002060A069C01EA0610FB1401EA0612A
:100F30002046AFF300804FB1D4E9012138469047F5
:100F4000206A401C2062C01C206206E0206AFAE78A
:100F5000D4E9012115F8010B9047761EF8D22046FE
:100F6000AFF30080BDE8F0814E414E006E616E002F
:100F7000494E4600696E66003A2800D2303820F0AB
:100F80002002412A01D3A2F13700884201D34FF059
:100F9000FF3070470FB4002300B589B00CA9009151
:100FA0000B99CB60214B7B440693214B7B440793E9
:100FB00004236FF00042CDE901321E4A7A446B46A9
:100FC00008920246002008F0A7FE09B05DF814FB65
:100FD00070B506464FF0FF3015460C46324686B0D7
:100FE0000091CDE9010169460020049004A8FFF7B3
:100FF000D1FF02460498211825B108B1084600E047
:1010000020462860049800280DD0002A02DD0098B0
:10101000884208D03246081B69460094CDE9010495
:1010200004A8FFF7B7FF06B070BD0000D7010000AD
:10103000EF010000AF0100002DE9F04781461646A0
:101040008AB0354878440DC88DE80D0032487844A0
:10105000801C03AC0DC884E80D0041F69B300844A9
:10106000372190FBF1F290FBF1F5A5F1800501FB32
:1010700012041B3C02D56442012000E00020DFF88E
:1010800098A080460027FA44AAF1BE0A0EE0E007C5
:101090000AD03246684607EB470101230AEB81017B
:1010A00001F018FA8DE8070064107F1C002CEED1C7
:1010B000194F7F44AE3F19E0E80715D007EB041045
:1010C0000DF1180A90E80E008AE80E00C068F042A0
:1010D00001D1981908903246012306A903A801F00E
:1010E000F9F903AB83E807006D10641C002DE3D110
:1010F0004FF0010332466946B8F1000F03A802D051
:1011000001F0BEF901E001F0E5F9C9E90001C9F813
:1011100008200AB0BDE8F087BCFB0100007B00F0AE
:10112000800070477546FFF781FEAE4605006946B0
:10113000534620F00700854618B020B5FFF7BAF8EF
:10114000BDE820404FF000064FF000074FF00008C8
:101150004FF0000B21F00701AC46ACE8C009ACE849
:10116000C009ACE8C009ACE8C0098D46704710B5AD
:101170000446FFF7E1FA0068005D00F0010010BDD1
:10118000426842B1016811F8013B23B1521EC0E927
:101190000012184670470121C160881E70474268DE
:1011A0005AB1C368016843B983688B4205D0491EB0
:1011B000521CC0E90012002070474FF0FF3070470A
:1011C00010B50446AFF300802046BDE81040FFF79D
:1011D0005DB800004FF0013C50F8042B51F8043B7F
:1011E0009A4221D1A2EB0C03934313EACC1317D1FB
:1011F00050F8042B51F8043B9A4215D1A2EB0C0392
:10120000934313EACC130BD150F8042B51F8043B51
:101210009A4209D1A2EB0C03934313EACC13DBD01F
:101220004FF00000704700BFD01A01BAB1FA81F147
:1012300001F0180122FA01F0CB40C1F12001DBB22C
:10124000C0B2C01A2CFA01F3D11A914311EAC311AA
:10125000E6D170472DE9FF4F06468BB00878FF288E
:1012600006D0491C2D2805D000244FF0000908E0C5
:1012700000200CE00124F8E709EB8903491C00EB8E
:1012800043090878FF28F7D114B1C9F1000081465D
:10129000107800252C46AA4629462D2801D02B2857
:1012A00004D1521C2D2813D0002082468B46107882
:1012B000FF280FD04FF0000C0A21521CA5FB01782B
:1012C00004FB018105FB0C11C5194BEB0104EEE792
:1012D0000120EAE7002108464FF00000BAF1000FB4
:1012E00002D000EB80004008C0F38157012F01DDE0
:1012F0004FF0FF370E9955EA040009EB01080BD0B7
:101300004FF0020918F5FA7F16DA4FEACA70002F7B
:10131000706008DD012007E04FEACA70C6E900B03E
:101320000FB0BDE8F08F00203060FFF70DFAC0F875
:1013300000901821084616E0B8F5FA7F18DD002F56
:1013400002DAF748784401E0F6487844D0E9001022
:10135000C6E9001040EACA707060FFF7F5F9C0F8FE
:101360000090142108460FB0BDE8F04F08F06FBCA4
:10137000002108464FF00000B8F10001099002DAA0
:10138000C7F1000200E03A4601DAC8F1000106A800
:10139000FFF752FE06AB93E8070003AB83E80700B4
:1013A00044F23E005BEA04010090584604D144F246
:1013B0001E012C465D460091210C0904014306D113
:1013C0000099240444EA15442D041039009104F0D6
:1013D0007F41014306D10099240244EA15642D029D
:1013E0000839009104F07041014306D100992401AD
:1013F00044EA15742D01091F009104F04041014396
:1014000006D10099A40044EA9574AD00891E0091AC
:1014100004F00041084304D100986D196441401E56
:1014200000904FF001033A466846B8F1000FCDE94D
:10143000014503A902DD01F062F801E001F035F891
:10144000BAF1000F04460D4601D084F0004400219B
:1014500008464FF00000099940F2FF77484010F02D
:101460000C0F07D124F00040284303D0C4F30A50E6
:10147000B84212D1FFF768F9C0F80090C4F30A50DF
:10148000B8420AD1A8487844D0E90010C6E9001053
:1014900004F000410843706042E7C6E900543FE7AA
:1014A0002DE9FF4F1F464FF0000A4FF0FF38454629
:1014B00091B0D7E90146CDF83CA0FFF7BBFCC0686E
:1014C0000168405C1090B96912986D1C8847396AB0
:1014D000814688470028F6D1B9F1FF3F0AD0002E97
:1014E00024F4D06411DDB9F12B0F08D0B9F12D0F20
:1014F0000BD102E0404615B013E744F48064B969AB
:1015000012986D1C8847761E8146600504A901D596
:101510002D2000E02B20002E01F1010B0DF13008F1
:101520008DF810003FDDB9F1690F08D0B9F1490F0E
:1015300005D0B9F16E0F02D0B9F14E0F1CD13B4668
:1015400001A8009580E85002DDE912126FF0020058
:1015500008F0E6FBC11CCED10EE0B96912986D1CF3
:10156000884781461398761E44F4007405600F98EE
:10157000401C002E0F9016DDB9F1300FEDD0B9F1FF
:10158000780F02D0B9F1580F0DD10F9801280AD168
:101590003B46CDE90054DDE91212001F029608F027
:1015A000BDFBC11CA7D1109989453ED144F08004F0
:1015B00006E01399681CAAF1010A44F4007408605B
:1015C000B9696D1C1298761E884730288146F0D084
:1015D0002BE01099894505D1200603D4761E44F0EE
:1015E000800418E0484602F01DF908B3761E0DF19C
:1015F00023018B4544F4007408D2A9F130000BF8A4
:10160000010B200607D5AAF1010003E0200602D451
:101610000AF101008246A00502D51399681C0860F2
:10162000B96912986D1C88478146002ED1DC53E0C1
:10163000002E51DDB9F1650F02D0B9F1450F4BD144
:10164000A00549D5B9696D1C1298761E24F4407422
:101650008847002E81460CDD2B2804D0B9F12D0FD0
:1016600007D144F48074B96912986D1C8847761EBE
:101670008146E00501D52D2100E02B2108F8011B52
:10168000CDF8008021E0761E0DF13901884544F443
:1016900000740CD2A9F1300010F0FF0088F80000AF
:1016A00002D10099884509D908F1010806E0E00552
:1016B00001D51E4801E042F20F708246B9691298C6
:1016C0006D1C8847814613980560002E04DD48464E
:1016D00002F0A8F80028D6D1F96912988847FF20AF
:1016E00053468BF8000088F8000000200A900B9009
:1016F00004AA0CA90AA8FFF7ADFDA00502D46FF05B
:101700000100F8E614F0240F12D0E0071CD138686D
:10171000DDE90A12031D3B600068C0E9001213E016
:10172000A4F9010096F901005AF80100F1D8FFFF71
:101730000AA9684601F0DAFFE00705D13868009A87
:10174000011D3960006802602846D4E62DE9FF4F8C
:101750001F464FF03C0987B04FF00042DDE91410FE
:1017600001F10108DDF858A002EA40500390002082
:1017700005908346054604460490B969461E0898BC
:101780008847AAF1010A0290BAF1000F3BDD0298E6
:101790002E2815D01021FFF7EFFB00282EDB4FF08D
:1017A000010B0599014317D0B9F1000F0BDB4A4635
:1017B000C11700F0F5F905430C43A9F1040905E050
:1017C000012004900BE008B145F0010501200590CF
:1017D000049820B9361D02E0049800B1361FB9699B
:1017E000089808F101088847BBF1000FAAF1010A27
:1017F0000290C9D00999C1F80080C5E70298702805
:1018000008D0502806D0F96908988847BBF1000F26
:1018100014D04FE0002002900120BBF1000F049093
:1018200009D0B969089808F101088847AAF10109A7
:10183000B9F1000F07DCF969089888476FF00100DB
:101840000BB0BDE8F08F2B2804D02D280CD14FF021
:10185000FF300490B969089808F101088847A9F198
:101860000109B9F1000FE6DD411CE4D00A21FFF7C0
:1018700083FB0028DFDB029908F1010801EB8101FD
:1018800000EB41000290B969089888470A21FFF7E8
:1018900073FB099AA9F10109B9F1000FC2F80080A0
:1018A00001DD0028E7DAF969089888470499029869
:1018B00000FB016655EA040004D004F04041090031
:1018C00002D006E0039898E0A40044EA9574AD00C5
:1018D000B61E04F00041080002D16D196441761E65
:1018E000159810F0240F03D04FF00B095C4803E06B
:1018F0004FF028096FF07D008246564507DAAAEBC3
:1019000006018944B9F1410F01DD4FF04109012081
:101910000021A9F1010200F043F9024628400B46DC
:101920002140084301D0012100E00021501E029116
:1019300043F1FF3128402140084301D0012000E05D
:1019400000200299834651EA0B014FD0002108463E
:101950004FF00000039900F4400039B100EB800023
:101960004FF4400100EBD07001EA600080150128BF
:1019700002DD4FF0FF3000E013D0401C36D002985B
:1019800060B3BBF1000F0CD14A460120002100F0EA
:1019900007F928402140084301D0012000E0002041
:1019A000E0B101204A46002100F0FAF80346401950
:1019B0000A4661412D1A8C4111D3B9F1400F09DD5E
:1019C000159810F0240F02D0AAF1340603E0AAF112
:1019D000170600E0761C00254FF0004406E05B1E71
:1019E00042F1FF3220EA030521EA0204CAF10100B4
:1019F000B04206DA1B49039808430190002000908A
:101A00000EE0039AC4F3D321E80A0A43164940EAD8
:101A100044500A433146CDE90002684601F06FFEAA
:101A2000159810F0240F0BD01598C00715D1386801
:101A3000DDE90012031D3B600068C0E900120CE004
:101A400002A8694601F052FE1598C00705D1386812
:101A5000029A011D3960006802604046F0E600000D
:101A600002FCFFFF0000F07F0000F03F2DE9FF4F78
:101A700092461D4685B04FF00041DDE9124BDDE98D
:101A800014727F1E01EA4B50414940F0FF4940EA81
:101A90000108002122F020004928049102D04E289C
:101AA00028D04CE03BA0012607C88DE80700A969B3
:101AB0000698641C88477F1E014606D41DF8060060
:101AC00018B121F0200181420BD0E96906988847BE
:101AD000032E34D0082E32D06FF0010009B0BDE8DB
:101AE000F08F761C032E01D0082EE0D1601CCAF8BE
:101AF0000000DCE7A9690698641C88477F1E2AD489
:101B000020F02000412826D1A9690698641C884746
:101B10007F1E20D420F020004E281CD1A9690698F1
:101B2000641C88477F1E48F4002849F48009CAF8DD
:101B3000004001D4282806D0E969069888475FEA62
:101B4000CB7012D022E0A9690698641C88477F1EDA
:101B500001D4002803DAE96906988847BCE72928F8
:101B6000F1D1641CCAF80040E9E71BF0240F07D04C
:101B700028680499031D2B600068C0E9001805E07F
:101B80002868021D2A600068C0F800902046A5E77A
:101B90000000F07F494E46494E495459000000006C
:101BA000B2F120030AD5C2F1200301FA02F120FAB2
:101BB00003F300FA02F041EA0301704700FA03F16F
:101BC0004FF0000070472DE9F04F86B09DF8587037
:101BD00000910392002F059318BF0123109C04FB72
:101BE000033304930F9D14BF2F4601270197BDF8BF
:101BF00044305B0800F09F80DDF850B0139A02EB90
:101C000083030293DDF848E0039F5FEA9E08DDF856
:101C100000C057F8046B57F8043B03971A46314647
:101C200022D05CF81E705CF8049B50F804AB50F8AE
:101C3000045B2AFB09662AFB071125FB093325FBF8
:101C400007225CF81E705CF8049B50F804AB50F857
:101C5000045B2AFB09662AFB071125FB093325FBD8
:101C60000722B8F10108DCD10EF003078FB13CF96F
:101C70001E803CF902AB30F9025B30F9029B0AFB93
:101C8000056609FB0A3308FB051109FB0822013F21
:101C9000EDDCDDF84CA0159F3AF9024B57F804CB68
:101CA0005BF8045BC4F1150999EA040940F3C880A4
:101CB0004FEA46064FEA410156FB05C651FB05C1F6
:101CC00046FA04F641FA04F13AF9024B57F804CB0C
:101CD0005BF8045BC4F1150999EA040940F39980A3
:101CE0004FEA43034FEA420253FB05C352FB05C2CE
:101CF00043FA04F342FA04F206F30706DDF804900F
:101D0000179CDDF810802670A04401F3070188F8C5
:101D1000001003F3070304F8093002F3070208F880
:101D2000092004EB49021792CDF84CA0029C1597AC
:101D3000A2457FF467AF119B13F0010354D0BDF8A7
:101D400048E0039BDDF800C019685FEA9E070CEBD2
:101D50004E040E4615D05CF81E505CF8048B50F80B
:101D600004AB50F8043B2AFB08662AFB05115CF81B
:101D70001EA05CF8048B23FB086623FB0A11013FBD
:101D8000E9D11EF003070BD03CF81E303CF8029B53
:101D900030F902AB19FB0A66013F13FB0A11F3DCB1
:101DA000DDF84CA0159FBAF90040D7F800C0DBF869
:101DB0000050C4F1150999EA040958DD4FEA4606B6
:101DC0004FEA410156FB05C651FB05C146FA04F630
:101DD00041FA04F106F30706179A049C167001F302
:101DE00007011155019B1A441199169B109C33B1A0
:101DF0000F9B04F1020003FB1100104406E0A2EB6C
:101E00000100059A04F1020402FB040006B0BDE8DB
:101E1000F08F002C42DD4FF0010909FA04F94FEA76
:101E2000A90953FB05934FEA430343FA04F36344C0
:101E300052FB05924FEA420242FA04F262445BE727
:101E4000002C3CDD4FF0010909FA04F94FEAA90919
:101E500056FB05964FEA460646FA04F6664451FBE1
:101E600005914FEA410141FA04F161442CE7002C4D
:101E700036DD4FF0010909FA04F94FEAA90956FBCA
:101E800005964FEA460646FA04F6664451FB05916C
:101E90004FEA410141FA04F161449BE7C4F10109B1
:101EA00003FA09F303F31F0353FB15F302FA09F2D4
:101EB00002F31F0252FB15F2634462441CE7C4F1B3
:101EC000010906FA09F606F31F0656FB15F601FA94
:101ED00009F101F31F0151FB15F166446144F3E67A
:101EE000C4F1010906FA09F606F31F0656FB15F6BA
:101EF00001FA09F101F31F0151FB15F16644614438
:101F000068E75FEA400C08BF91F0000F4FEA8C23AE
:101F10004FEAC12243EA51514FEA1C5018BF00F565
:101F2000F0404FEA300018BF41F000415FEA6C5CBE
:101F300000F02980BCF1FF3F08BF40F080407047AF
:101F4000130C06BF12044FF0100C4FF0000C130ED0
:101F500004BF12020CF1080C130F04BF12010CF1A4
:101F6000040C930F04BF92000CF1020CD30F04BFBA
:101F700052000CF1010C11464FF00002A0F11F00BD
:101F8000A0EB0C00704711F0004F08BF704731F014
:101F900000413FF4D5AF0B0C06BF09044FF0100C05
:101FA0004FF0000C0B0E04BF09020CF1080C0B0FD4
:101FB00004BF09010CF1040C8B0F04BF89000CF164
:101FC000020CCB0F04BF49000CF1010CCCF1200333
:101FD000A0EB0C0022FA03F302FA0CF241EA03012F
:101FE00000F10100704720F07F4C80EA030023F0ED
:101FF0007F47ACEB070303F57C5300F0004003F18F
:10200000FF032DE980494FEA154B09B44FEA144309
:1020100025EA0B4E24EA03480FF2042606EB1327A9
:1020200049083E785FEA320203FB0667C7F50007FE
:1020300007FB06F64FEA54374FEAD64606F102068A
:1020400007FB066CCCF1005C4FEA1C472CEA074CFE
:1020500007FB06F40CFB06F504EB15464FEA961653
:1020600034BF00204FF000404FEAD13706FB07FC99
:102070004FEA1C4C0CFB0BF7D21B03FB0CF761EB7C
:1020800007010CFB0EF7B0EB074072EB17420CFB9D
:1020900008F734BFA2EB0742B2EB074261EB1741EE
:1020A0004FEA0C444FEA910706FB07FC4FEA1C4C31
:1020B0000CFB0BF7B0EBC74072EB573203FB0CF78E
:1020C00034BFA2EBC742B2EBC74261EB57310CFB06
:1020D0000EF7B0EBC70072EB57720CFB08F734BF7A
:1020E000A2EBC702B2EBC70261EB5771039F4FEA45
:1020F000816141EA921104EBCC044FEAD1374FEAF7
:10210000826206FB07FC42EA90124FEA80604FEAC7
:102110001C4C0CFB0BF7D21B03FB0CF761EB07010C
:102120000CFB0EF7B0EB074072EB17420CFB08F705
:1021300034BFA2EB0742B2EB074261EB17414FEA13
:102140008C554FEA910704EB9C2406FB07FC4FEAF1
:102150001C4C0CFB0BF7B0EBC74072EB573203FB88
:102160000CF734BFA2EBC742B2EBC74261EB573169
:102170000CFB0EF7B0EBC70072EB57720CFB08F7C5
:1021800034BFA2EBC702B2EBC70261EB577115EB8C
:102190004C254FEA816141EA92114FEA82624FEA8F
:1021A000D13742EA901206FB07FC44F100044FEAE3
:1021B00080604FEA1C4C0CFB0BF7D21B03FB0CF7A7
:1021C00061EB07010CFB0EF7B0EB074072EB174217
:1021D0000CFB08F734BFA2EB0742B2EB074261EBFE
:1021E000174115EB1C154FEA813141EA92414FEA44
:1021F000823242EA90424FEA80304FEA0C7644F154
:10220000000448EA03434EEA0B484FF0000EB2EBDD
:10221000080C71EB030724BF624639464EEB0E0EE5
:102220004FF0000B0018524149414BEB0B0BB2EB46
:10223000080C71EB03077BF1000B24BF62463946A3
:102240004EEB0E0E4FF0000B0018524149414BEB84
:102250000B0BB2EB080C71EB03077BF1000B24BFF7
:10226000624639464EEB0E0E51EA020718BF46F0A1
:10227000010616EB0E7655F1000254F1000103D56C
:10228000BDE88901BDE80088BDE88901BDE80048D6
:10229000B619524141EB0101A3F10103704780805F
:1022A0007F7E7D7C7B7A79787776767574737271B0
:1022B00071706F6E6E6D6C6C6B6A6A696868676668
:1022C00066656464636362616160605F5F5E5E5DFA
:1022D0005D5C5C5B5B5A5A5959585857575656556E
:1022E00055555454535352525251515050504F4FD0
:1022F0004F4E4E4D4D4D4C4C4C4B4B4B4A4A4A4920
:102300004949484848474747474646464545454462
:10231000444444434343434242424241414100001A
:1023200046EA0646A3F570534FEA164646EA425679
:102330004FEAD22242EA415210B54FEAD121A3F12D
:10234000010300F02FF820F0004000F1020C00F033
:10235000004701EB00501146BCF5006F40EA070052
:1023600000D210BDBAF1000F0AD01CB503B44FF073
:1023700004004FF004014FF000000FBCBDE8104016
:102380004FF00001BBF1010FB9BF04484FF0FF311E
:102390000348002140EA070010BD00BFFFFFEF7FA8
:1023A0000000F07F002B9C4630D477002BD01CB56A
:1023B0004FEA370703B44FF010004FF01001BAF1A5
:1023C000000F06D0BCF1000FDCBF40F0080040F069
:1023D00008014FF000000FBCBDE810400BF1010BED
:1023E000BBF1010F08BF5FEA170722BF12F101021C
:1023F00011F101014FF0004143F1000300F00040F2
:1024000043EA00007047F9D35708D0E746EA06468A
:1024100013F1400F4FEA16461FDD13F1200FDFBF07
:1024200016430A46002120335B42BED0C3F1200789
:1024300046EA064602FA07F74FEA164646EA070654
:10244000C3F1200722FA03F201FA07F721FA03F198
:102450004FF0000342EA0702A7E746EA020646EA0F
:1024600006464FEA164646EA0106BCBF46EA06465D
:10247000360C4FF000034FF000024FF0000194E7DC
:102480002DE9804C9A46934670B491E8380007C80D
:1024900031EA400C48BF34EA430C03D5FFF7A3FDF3
:1024A000FFF780FFF0BCBDE8008C2DE9804C9A4618
:1024B000934670B491E8380007C831EA400C48BF31
:1024C00034EA430C03D5FFF78EFDFFF729FFF0BC7C
:1024D000BDE8008C2DE9804C9A46934670B491E893
:1024E000380007C810F0804F08BF13F0804F03D1A9
:1024F00000F01AF8FFF756FFF0BCBDE8008C2DE99C
:10250000804C9A46934670B491E8380007C810F0A2
:10251000804F08BF13F0804F03D100F005F8FFF79C
:10252000FFFEF0BCBDE8008C20F07F4780EA03008E
:1025300023F07F4C07EB0C03A3F57C5300F0004025
:10254000A3F1FE0392F0000F00F0B38095F0000FAE
:1025500000F077802DE901494FEA11404FEA144617
:1025600021EA004800FB06FC24EA064708FB06F6C1
:1025700007FB08F800FB07F718EB06484CEB164C76
:102580004FEA124B18EB07484FEA15464CEB174041
:1025900022EA0B4E0BFB06FC25EA06470EFB06F66D
:1025A00007FB0EFE0BFB07F71EEB064E4CEB164C23
:1025B0004FF000061EEB074E4CEB174B18EB0B08C9
:1025C00040F1000018EB0E0B58EB000840F1000042
:1025D0008F1A4FF000013CBFC943661B14BFB5EB17
:1025E000040C00213CBFC943F61B4FEA17444EEAD6
:1025F0008E0E27EA04454FEA1C4704FB07622CEACB
:10260000074C05FB07F70CFB05F604FB0CFC16EB6F
:10261000074642EB174216EB0C4642EB1C421BEB03
:10262000060658EB0202414146EA9E0601D5BDE886
:102630000189B619524141EB0101A3F10103BDE843
:1026400001894FEA14454FEA114724EA054621EA79
:10265000074C05FB07F406FB07F70CFB06F105FB2F
:102660000CFC11EB074144EB17444FEA124711EB06
:102670000C4144EB1C4422EA074C05FB07F206FB25
:1026800007F70CFB06F605FB0CFC16EB074642EBC6
:10269000174216EB0C4642EB1C456A1854F1000138
:1026A00048BF7047B619524141EB0101A3F1010344
:1026B000704795F0000F37D04FEA11424FEA1447A8
:1026C00021EA024624EA074C02FB07F106FB07F762
:1026D0000CFB06F402FB0CFC14EB074441EB174126
:1026E0004FEA154714EB0C4441EB1C4125EA074C1B
:1026F00002FB07F506FB07F70CFB06F602FB0CFCDA
:1027000016EB074645EB174516EB0C4645EB1C420E
:10271000121951F1000148BF7047B619524141EBFF
:102720000101A3F1010370474FEA14454FEA114735
:1027300024EA054621EA074C05FB07F106FB07F7EB
:102740000CFB06F24FF0000605FB0CFC12EB0742F7
:1027500041EB174112EB0C4251EB1C4148BF704753
:10276000921841EB0101A3F10103704700BFFEE79E
:102770007047F0B50A4600210023002400BF3DE069
:10278000012505FA01F3156805EA03049C4234D1DA
:1027900005684F000326BE40B543056015794E001D
:1027A000B5400668354305601579012D02D01579CD
:1027B000022D16D185684F000326BE40B5438560C3
:1027C00055794E00B54086683543856045680126D9
:1027D0008E40B5434560456896798E40B6B2354324
:1027E0004560C5684F000326BE40B543C560D57936
:1027F0004E00B540C6683543C560491C1029BFD39B
:10280000F0BDF0B5002300244D07ED0E02FA05F3EC
:10281000CE1000F1200555F826504E07F70E0F2672
:10282000BE40B543CF1000F1200646F82750CE1029
:1028300000F1200555F8265045EA0304CE1000F1BA
:10284000200545F82640F0BD00BFFEE700BFFEE7CB
:102850007047000070B5002100230F22C4781CB31C
:10286000174C246804F4E064C4F5E064C4F3072161
:10287000C1F10404E3B20A4144789C40E1B2847897
:10288000144021430C07210E0E4C05786155047845
:1028900004F01F050124AC4005786D11AD0005F171
:1028A000E025C5F8004109E0047804F01F05012483
:1028B000AC40054D0678761145F8264070BD000005
:1028C0000CED00E000E400E080E100E0024901439B
:1028D000024A1160704700000000FA050CED00E0AC
:1028E0007047000029B1064A12680243044B1A607F
:1028F00004E0034A12688243014B1A6070470000EB
:102900003038024029B1064A12680243044B1A606B
:1029100004E0034A12688243014B1A6070470000CA
:1029200044380240F0B50021002200240225002690
:102930000223324F3F6807F00C0121B1042905D072
:10294000082937D105E02E4F076036E02D4F07608C
:1029500033E02A4F3F1F3F68C7F38056274F3F1F82
:102960003F6807F03F036EB1264FB7FBF3F7DFF880
:102970008CC0ACF1040CDCF800C0CCF3881C07FB65
:102980000CF40CE01E4FB7FBF3F7DFF870C0ACF1AE
:10299000040CDCF800C0CCF3881C07FB0CF4174FC8
:1029A0003F1F3F68C7F301477F1C7D00B4FBF5F76D
:1029B000076002E0124F076000BF00BF0F4F3F6883
:1029C00007F0F0010909104F7A5C0768D7404760AB
:1029D0000A4F3F6807F4E051890A0B4F7A5C476859
:1029E000D7408760054F3F6807F46041490B064FA9
:1029F0007A5C4768D740C760F0BD000008380240E5
:102A00000024F40000127A0000000020704700004B
:102A10000CB50020019000903448006840F48030EC
:102A20003249086000BF3148006800F4003000906F
:102A30000198401C0190009818B90198B0F5A04F7A
:102A4000F1D12A48006800F4003010B10120009054
:102A500001E0002000900098012846D12348403032
:102A6000006840F0805021494031086020480068EB
:102A700040F440401E4908601C48083000681B496B
:102A8000083108600846006840F4004008600846C5
:102A9000006840F4A05008601648091F0860081F2D
:102AA000006840F08070091F086000BF0F48006890
:102AB00000F000700028F9D040F205700E4908605F
:102AC0000A480830006820F003000849083108600F
:102AD0000846006840F00200086000BF0348083064
:102AE000006800F00C000828F8D10CBD0038024046
:102AF0000070004008544007003C0240042808D100
:102B00004FF0E021096941F004014FF0E02211612A
:102B100007E04FF0E021096921F004014FF0E022C5
:102B2000116170477047000010B51548006840F407
:102B30007000134908601348006840F00100114913
:102B4000086000200F49083108600E4800680E49EF
:102B500008400C4908600D48091D0860081F0068FE
:102B600020F48020091F0860002006490C3108600D
:102B7000FFF74EFF4FF0006001498039086010BD3B
:102B800088ED00E000380240FFFFF6FE1030002420
:102B900010B540F22551184800F04FF850B31648D0
:102BA00000F004F9C4B21548008800F40040E0B910
:102BB0000D2C01D00A2C06D11048008840F40040AA
:102BC0000E49088011E00D480088C0F30D000C4943
:102BD0000C540A480088401C0849088008460088B0
:102BE000B0F5805F01DB0020088040F225510248EB
:102BF00000F008F810BD0000001001403000002077
:102C0000EC5F002010B50022002340F66A14A142B8
:102C100000D100BF0A1201249440A3B2DC43048017
:102C200010BD21B1828942F40052828104E0828980
:102C30004DF6FF731A408281704770B5024600243A
:102C400000230025002040F66A16B14200D100BFE3
:102C5000C1F3421501F01F03012606FA03F3012D0B
:102C600002D19689334006E0022D02D1168A334004
:102C700001E0968A33400C12012606FA04F4168805
:102C8000344013B10CB1012000E0002070BDF0B55C
:102C90000346002400260025002040F66A17B942AA
:102CA00000D100BF1846C1F3421401F01F060127EE
:102CB00007FA06F5012C01D10C3004E0022C01D1F9
:102CC000103000E014301AB107682F43076002E0AB
:102CD0000768AF430760F0BD2DE9FF4705460E4684
:102CE0000024A14600BFA046B08900B100BF2C8AD5
:102CF00024F44054F08804432C82AC8941F20C60E7
:102D00008443B08831890843718908430443AC8106
:102D1000AC8A24F44074B0890443AC826846FFF75F
:102D200001FE2048854202D01F48854202D1DDF8CD
:102D30000C9001E0DDF80890A88900F4004040B153
:102D400009EBC90000EB091031684900B0FBF1F74D
:102D500007E009EBC90000EB091031688900B0FBFE
:102D6000F1F76420B7FBF0F004012009642101FBB6
:102D70001078A88900F4004040B1322000EBC80070
:102D8000B0FBF1F000F00700044308E0322000EB54
:102D900008106421B0FBF1F000F00F0004432C8117
:102DA000BDE8FF87001001400014014001468888FB
:102DB000C0F30800704700BFFEE703B4019841006C
:102DC000009850EAC12018BF04204A0D18BF40F0F7
:102DD000010040F2FF72B2EB515F08BF40F0020009
:102DE000012808BF052002B070474100080218BF43
:102DF00004200A0E18BF40F001004FF07F4232EA73
:102E0000010108BF40F00200012808BF05207047FB
:102E100030B52DED048B81B0B0EE408AF0EE608AC3
:102E20006A4651EC180B03F0FFFE00989FED329BB1
:102E30007E300090002821DC53EC192B51EC180B4C
:102E400006F0DEFC1AD0002140F608004FF000002A
:102E5000044651EC180B06F08DFC08EE100A40F603
:102E6000080004EA00014FF00000B5EEC08AF1EE60
:102E700010FA04BF0220FDF7E7FC2DE00098FF28C0
:102E800030DB002108464FF0000000F4400553EC11
:102E9000192B51EC180B06F029FE8CBF00240124DD
:102EA0000220FDF7D1FC9FED168A4DB1002C0CBF1E
:102EB0004FF400004FF48000A84218BF9FED118A24
:102EC000042108464FF00000002C01BFB1EE480A73
:102ED00001B0BDEC048B30BDB0EE480A01B0BDECD2
:102EE000048B30BD51EC180B06F044FC01B000EE31
:102EF000100ABDEC048B30BD000000000000000093
:102F00000000807FFFFF7F7F30B540F2FF742DED22
:102F1000048BF0EE608A18EE901A85B0B0EE408A0D
:102F20009FED2B9B05468DED008B34EA115147D068
:102F300053EC192B51EC180B06F062FC40D02A46DA
:102F400051EC180B06F0BAFE41EC180B18EE900A83
:102F50008DED008B34EA10501CD053EC192B51EC42
:102F6000180B06F04DFC2BD10220FDF76DFC00F094
:102F700087FB10EE901A18EE900A8DED020B8DED86
:102F8000008B61F31E0003909DED020B05B0BDECBC
:102F9000048B30BD0220FDF757FC00F061FB10EE02
:102FA000901A18EE900A8DED020B8DED008B61F3F7
:102FB0001E0003909DED020B05B0BDEC048B30BDEF
:102FC00005B0B0EE480AF0EE680ABDEC048B30BDE7
:102FD000000000000000000010B510EE100A2DEDFA
:102FE000068BB7EE001A10EE901AB0EE418A00225E
:102FF000A0F5000CDFEDFE9A4FF00073BCF1FE4F20
:103000004FF07F4403EB410C80F0B481BCF1804F62
:10301000C0F02082F74901449FEDF73AB1F5005F17
:1030200040F2D48200F58021CB0C03F00F0101EEB9
:10303000901AC3F307137F3BA0EBC350B8EEE12A0D
:1030400000EE100A1A44DFEDED2AF0EE411A42EECE
:10305000221AF0EE613A70EE232A30EE632A12EE65
:10306000900A00F500606FF30B0001EE900A73EE1A
:10307000E13A33EE804AC1EE223A22EE230A10EE04
:10308000100A00F500606FF30B0000EE100A00EE6E
:10309000612A00EE442A62EE232A70EE221A21EE03
:1030A000A12ADFEDD73A02EE233A23EE023A20EED0
:1030B000012A22EE811A03EE211A32EE010A10EEE5
:1030C000100A00F500606FF30B0000EE100A72EEBC
:1030D000401A31EE812A9FEDCB1A60EE011A9FED66
:1030E000CA1A20EE011A9FEDC90A02EE001A31EE4B
:1030F000810A10EE100A00F500606FF30B0000EE7D
:10310000100AC34871EEC01A31EE812A784400EBF0
:10311000C10090ED003AD0ED011A100101EE100A45
:10312000F8EEC12A32EE211A31EE001A31EE031AFE
:1031300031EE221A11EE100A00F500606FF30B0059
:1031400009EE100A39EE621A31EE431A31EE400AE6
:1031500030EE610A32EE40AA10EE900A002100F52E
:1031600000606FF30B0008EE900A084670EEE8AAC4
:103170004FF0000029EE280A00F00C01F0EEC00A22
:1031800010EE900AB0F18B4F0DDD10EE900AB4EB0B
:10319000400F08D310EE100A4FF08B4262F31E006E
:1031A00008EE900A13E069EE2A0A38EEAA1A4AEEEF
:1031B000010A30EE201A11EE100A00F500606FF3DC
:1031C0000B0008EE900A30EE680A70EE209A0C2090
:1031D0004FF0000038EEA90AB5EEC00AF1EE10FA81
:1031E00034BFFEEE000AF6EE000A30EE800ABDEEB5
:1031F000C00A10EE100A011100EE101AF8EEC00A13
:1032000000EE100AB8EEC00A38EEC00A30EE290A05
:10321000DFED801A9FED801A00EE211ADFED7F1A94
:103220007F4900F00F0040EE011A21EE800A794438
:1032300001EB800191ED001A7A49794401EB80019C
:10324000D1ED001A784901EE801A794401EB800033
:10325000764990ED000A31EE001AB0EEE00A10EE69
:10326000100A884215DA10EE100AB4EB400F10D3A2
:103270009FED6F0A30EE800ADFED6E0A20EE200A25
:1032800068EE010ABDEC068BBCEEC00A20EE200AF7
:1032900010BD10EE100A6849884243DA10EE100A99
:1032A000B4EB400F3ED3BDEEE00A68EE010A10EE2B
:1032B000100A00EBD0725110C90501F17E5100EEE9
:1032C000101AA0EB6200C00560EE200A00F17E50EB
:1032D00000EE100A60EE808A18EE900AB4EB400F00
:1032E0000FD10220FDF7B0FA00F0F0F910EE101A3D
:1032F00018EE100ABDEC068B61F31E0000EE100AFA
:1033000010BD18EE900A400011D018EE900AFFF799
:103310006CFD042808BF00F0E1F9B0EE680ABDECCE
:10332000068B10BDF5EEC00AF1EE10FA0FD20220A6
:10333000FDF78AFA00F0D2F910EE101A18EE100A12
:10334000BDEC068B61F31E0000EE100A10BD0220DA
:10335000FDF77AFA00F0BAF910EE101AB0EE480A4A
:1033600010EE100ABDEC068B61F31E0000EE100A91
:1033700010BD00BFBCF1804F6CD300BF00F1FF4314
:10338000B3F1FE4F24D200BFB0EEC00A10EE100A17
:10339000C1F3C7537F2B0DDB972BBFF63BAEC3F1B9
:1033A00096034FF0010C0CFA03F3A3F1010C1CEA95
:1033B000010F08D00120FDF747FABDEC068BBDE8F0
:1033C000104000F07BB90B4218BFBFEE008A21E627
:1033D00043001CBF4FF08073B3EB400F34D96FF044
:1033E0001A02DFED161A20EE210A10EE100A27E06D
:1033F00000000000001080C0ABAAAA3E0000803D83
:103400007EE24C3E00B03842D49AB8BB3BAA384268
:1034100038D90100FC596337C9FF753A1872313D3C
:10342000D6D801000AD901007AD801000000FC4278
:103430000000FE420000004B000040430000004D31
:1034400010F0004FA0D1E5E5A0F50003B3F1FE4F69
:1034500021D2DFE503EB4103B3F1007F11D3F5EE99
:10346000C00AF1EE10FA05D1430018BFB4EB400FCB
:1034700076D883E701F0004141F0FC5100EE901A4C
:103480007CE7B3F1807F06D210EE903AA3F50003FB
:1034900000EE903A72E720F000426FF0FF4C604C73
:1034A00002EB0C03A34210D321F000439C44A4453B
:1034B0000BD3B0F17E5F18BF5FEA410C50D0B2F180
:1034C000FF4F98BFB3F1FF4F05D9BDEC068BBDE8A8
:1034D000104000F0EFB8B0F1FF4F0FD0C1F3C7526A
:1034E0007F2A09DB972A11DAC2F19602012303FA37
:1034F00002F2531E0B4205D0002208E011F0004FEB
:1035000055D128E00A4218BF012200D1022210F54D
:10351000000F13D028B3B0F1004F26D010F1814F27
:103520004FD04FF0FE42B2EB400F94BF012000207D
:10353000012202EBE171884239D10CE011F0004F19
:1035400002D0012A38D032E0012A02BF9FED350AAD
:10355000BDEC068B10BD9FED340ABDEC068B10BD93
:103560002FE011F0004F0CD121E0B1F1FF4F1ED040
:1035700011F5000F05D011F0004F15D00AB1012A46
:1035800008D00220FDF760F9BDEC068BBDE81040C5
:1035900000F086B80220FDF757F900F081F8BDEC85
:1035A000068BB1EE400A10BD0AB1012A04D0B0EE7C
:1035B000690ABDEC068B10BDBDEC068B9FED1B0AA6
:1035C00010BDBDEC068BB7EE000A10BD30EE410A0F
:1035D000B5EE001A9FED172A00EE413AB6EE001A3A
:1035E00060EE001A00EE431A61EEC11A9FED101A48
:1035F00020EE011A20EE020A9FED0F2A01EE820A48
:1036000071EE001A11EE900A00F500606FF30B00E6
:1036100009EE100A31EE491A31EE00AA9CE50000CD
:10362000FFFF3F00000080FF0000807F000000805F
:1036300000B0B841D49A38BB3BAAB84108B59FED59
:10364000060A0A4601468DED000A6846FDF7E1FBD1
:103650009DED000A08BD0000000000000000000011
:103660009FED050B10B553EC102B51EC100B06F031
:103670003FF941EC100B10BD00000000000000708D
:103680009FED050B10B553EC102B51EC100B06F011
:103690002FF941EC100B10BD0000000000000010DD
:1036A000DFED030AB7EE001A81EE200A7047000032
:1036B0000000000030EE200A70470000DFED020A33
:1036C00080EEA00A70470000000000009FED020A93
:1036D00020EE000A70470000000000709FED020A13
:1036E00020EE000A704700000000001010B50446EC
:1036F00091ED000BFFF78CFB84ED000A10BD10B5B7
:10370000044690ED000B0846FFF7FEFB84ED000B2E
:1037100010BD10B54169044688472069A04200D118
:10372000002010BD2DE9F04F002699B00F46054648
:103730003446B0464CE0A868C4EBC40389464268EE
:1037400002EB83020E92806810AA00EBC40A2C4898
:103750000D9251F8082F006A120A62F31F2001909F
:10376000D1F804B01C2105A8FCF7BAFFD9F818005D
:10377000006801F095FB0590D9F818008068069064
:103780005FEA0A0009D0C0F80080D9F80010416053
:1037900029B1498819B1012102E0404603E0002126
:1037A000016001B900200790D9F818001C2205A972
:1037B000406809900198CDE90A0B0D98FCF75EFF6F
:1037C0001C2210A90E98FCF759FF761CB6B2641C97
:1037D0000DB1288800E00020A04205D9686818B122
:1037E00050F824100029A6D11EB1A868406838609E
:1037F00001E0C7F8008019B03046BDE8F08F000046
:10380000E00902080021C0F34342042A01D0082A3B
:1038100006D1C0F3C612C0F34150C240012191400D
:103820000846704730380A2801D20120704700202E
:10383000704700002DE9FF4F85B08A4615984FF478
:10384000807140421C469146884200DD084609FBD3
:1038500004F38346012B06D90246DDE91301169BCA
:1038600000F0B8FD09E016985A46CDE900A012987C
:103870004343DDE9130100F02DFF00201FE0564611
:103880000027059D10E000BFDDE913321698CDE951
:103890000032CDE902B0234631462846129A00F0A4
:1038A00015F86D1C761C7F1CA742EDD31299059864
:1038B00004FB01AA04FB0100059008F10100804609
:1038C0004845DCD309B0BDE8F08F00002DE9FF4F7B
:1038D0008B4691F90040002081B01546012107E098
:1038E000049A4A431BF90220A24200DB1446491CF9
:1038F000A942F5D3002116E0049A109B4A431BF914
:103900000220A21A9A420DDA119B40F2FF7653F878
:103910002220C2F30B03121300D5761CB34200DD44
:10392000521C1044491CA942E6D3B0FA80F18840E9
:10393000C1F1230A00F10040C1176FF00042801866
:1039400041F10002011E4FF0FF3672F1000101DB70
:10395000012300E03346181842EBE3714FF00202F6
:103960004FF00003FCF7B9FC074602460021CD4B9F
:10397000C00F4FF0804C009002D1DFF82CC3411EE5
:103980006046C2FB03014FF000420023FCF7A5FC98
:1039900000F15A38009B00214FF08040B3EBD87FF4
:1039A00001D0C1488117C7FB08014FF00042002336
:1039B000FCF793FC474504D1B7F1004F01D16FF0FC
:1039C0000040C0F1005900214FEAD8734FF0804009
:1039D000B3EBD97F01D0B4488117C8FB09014FF080
:1039E00000420023FCF779FCC84504D1B8F1004F30
:1039F00001D16FF000406FF060418200884201DD2C
:103A0000314601E04FF0000121F0004101DD334675
:103A100001E04FF0000322EA030281EA0201A34A17
:103A2000904201DA304601E04FF0000000F0004023
:103A300001DA324601E04FF0000221EA020180EA99
:103A400001008044009B4FF080404FF00001B3EB39
:103A5000D87F01D094488117C7FB08014FF000427E
:103A60000023FCF73AFC474504D1B7F1004F01D1E0
:103A70006FF00040C0F1005900214FEAD8734FF0B9
:103A80008040B3EBD97F01D087488117C8FB09017B
:103A90004FF000420023FCF720FCC84504D1B8F1E8
:103AA000004F01D16FF000406FF06041820088420A
:103AB00001DD314601E04FF0000121F0004101DD60
:103AC000334601E04FF0000322EA030281EA0201DB
:103AD000764A904201DA304601E04FF0000000F0F3
:103AE000004001DA324601E04FF0000221EA020113
:103AF00080EA01008044009AC1464FF080404FF0B8
:103B00000001B2EBD87F01D067488117C7FB0801DD
:103B10004FF000420023FCF7E0FB474504D1B7F12A
:103B2000004F01D16FF00040C0F1005700214FEA73
:103B3000D9724FF08040B2EBD77F01D05A4881173D
:103B4000C9FB07014FF000420023FCF7C6FBB94553
:103B500004D1B9F1004F01D16FF000406FF0604225
:103B60008300904201DD324601E04FF0000222F076
:103B7000004201DD374601E04FF0000723EA07036A
:103B800082EA0302494B984201DA304601E04FF0E5
:103B9000000000F0004001DA334601E04FF000037E
:103BA00022EA030280EA020048446FF040414FEAF3
:103BB0004002884201DD314601E04FF0000121F072
:103BC000004101DD334601E04FF0000322EA030229
:103BD00081EA0201344A904201DA304601E04FF0B6
:103BE000000000F0004001DB4FF0000621EA060172
:103BF00080EA0108BAF11F0F05DDAAF11F0148FA9A
:103C000001F84FF01F0A002646E0049906FB01F96F
:103C10001BF909001099201A884238DA11994FEAE5
:103C2000D873474651F8202000214FF08040009281
:103C3000B3EBD27F01D01C488117C7FB02014FF0C4
:103C400000420023FCF749FB00998F4204D1B7F1F1
:103C5000004F01D16FF00040012101FA0AF1491E25
:103C600001EA000250FA0AF04FEA610100D5491C4E
:103C70008A4200DD401C002807DDFF2800DBFF2012
:103C8000019A803802F8090005E00020F8E7019960
:103C9000802201F80920761CAE42B6D305B0BDE8FB
:103CA000F08F0000C4C3C3C3010000C0010000E0E6
:103CB0002DE9FF5F984693468946824600271AE021
:103CC0004D46544600260EE00DF13C0C9CE80F00DA
:103CD0008DE80F004346294620460E9A00F010F862
:103CE000641C6D1C761C4645EED30E9A7F1C08FBA7
:103CF000029908FB02AA5F45E2D3BDE8FF9F0000DE
:103D00002DE9FF4F8DB017460E984FF000081C9A12
:103D100090F80090012009E010990E9B4143595CF6
:103D20004B46494500DA19468946401CB842F3D350
:103D300002EB09000024651E6FF0004A1C9094E11C
:103D4000109804FB00F10E98405C1C9988427DDBC2
:103D5000A0EB09061B98DDF868B086400021F30F40
:103D60004FF08040B3EBDB7F01D0F8488117C6FBF2
:103D70000B014FF000420023FCF7AFFA5E4503D180
:103D8000B6F1004F00D1504620F07F41A1F1807183
:103D9000A1EB000B09904FF0805000EB4112800026
:103DA0000021D30F16460B92B3EBD27F01D0E74828
:103DB0008117C6FB02014FF000420023FCF78DFA89
:103DC000B6F1004F00D150460C90E14805900C9898
:103DD000002106460246C00F4FF0804C0690B0EB23
:103DE000D27F02D0DFF864C3491E6046C6FB0201E1
:103DF0004FF000420023FCF770FAB6F1004F00D1FB
:103E0000504600F0030186104FF0010000D502205B
:103E1000814200DD761C0B9A01920C98069B04905F
:103E200000214FF08040B3EBD27F01D0C74881170B
:103E3000019B049AC2FB03014FF000420023FCF7F0
:103E40004CFA019A0499914205D100E0FDE0B1F1EC
:103E5000004F00D150463218BE4B00214FF0804039
:103E6000D60F01D0B9488117C2FB03014FF00042C1
:103E70000023FCF732FA0C99084400F001024010CC
:103E80004FF0000100D501218A4200DD401C0B9952
:103E9000421800214FF08040B1EBD27F01D0AB48F7
:103EA0008117059BC3FB02014FF000420023FCF782
:103EB00014FAA749084402901BF0807000D02846ED
:103EC000029A0190A44B00214FF08040D60F01D000
:103ED0009E488117C2FB03014FF000420023FCF70C
:103EE000FCF901990840DDE9012191434840029025
:103EF0001BF0007000D02846984B0190029A58079A
:103F00000021D60F01D091488117C2FB03014FF069
:103F100000420023FCF7E1F901990840DDE90121A5
:103F20009143484002901BF0806000D02846029ADE
:103F300001908B4B00214FF08040D60F01D0834879
:103F40008117C2FB03014FF000420023FCF7C5F9C3
:103F500001990840DDE901219143484002901BF09E
:103F6000006000D028467F4B0190029A180700217C
:103F7000D60F01D075488117C2FB03014FF00042F4
:103F80000023FCF7AAF901990840DDE901219143DA
:103F9000484002901BF0805000D02846029A0190C1
:103FA000714B00214FF08040D60F01D06748811738
:103FB000C2FB03014FF000420023FCF78EF9019988
:103FC0000840DDE901219143484002901BF0005078
:103FD00000D02846654B0190029A98070021D60F21
:103FE00001D05A488117C2FB03014FF00042002361
:103FF000FCF773F901990840DDE90121914348403C
:1040000002901BF0804000D028468346F223029A9B
:1040100058070021D60F01D04C488117C2FB03017D
:104020004FF000420023FCF758F9029900EA0B0018
:1040300021EA0B014840099929B1002222F00041F0
:104040009043414002E02A46F8E70021C1F30B0308
:10405000081340F2FF7200D5521C934200DD401C51
:1040600080441D9840F82410641CBC42FFF468AEE4
:10407000B8FA88F108FA01F0C1F1230900F1004013
:10408000C1176FF00042801841F10002011E72F169
:10409000000101DB012300E02B46181842EBE3711D
:1040A0004FF002024FF00003FCF717F9304B0021EC
:1040B0001A07C60F0446019601D1244A491E10462C
:1040C000C4FB03014FF000420023FCF706F900F1A6
:1040D0005A36019A0021B0464FF08040B2EBD67FAD
:1040E00001D01A488117C4FB06014FF0004200239B
:1040F000FCF7F3F8B44203D1B4F1004F00D15046BD
:10410000C0F1005B0021F30F4FF08040B3EBDB7F89
:1041100001D00E488117C6FB0B014FF0004200236F
:10412000FCF7DBF85E4503D1B6F1004F00D15046F5
:104130006FF060428100904201DD2A4601E04FF0BD
:10414000000222F0004215DD2B4615E0010000C000
:1041500094A8F570ABAAAA2A7BBEAF63F2CBA24D9E
:104160006CAC162FA4AA5211B72A580211FE0A00ED
:10417000C4C3C3C34FF0000321EA030182EA010272
:104180009249884201DA284601E04FF0000000F031
:10419000004001DA294601E04FF0000122EA010265
:1041A00080EA020000EB0806019AB0464FF080401A
:1041B0004FF00001B2EBD67F01D085488117C4FBD8
:1041C00006014FF000420023FCF787F8B44203D108
:1041D000B4F1004F00D15046C0F1005B0021F30F55
:1041E0004FF08040B3EBDB7F01D079488117C6FBED
:1041F0000B014FF000420023FCF76FF85E4503D13E
:10420000B6F1004F00D150466FF0604B8200584528
:1042100001DD294601E04FF0000121F0004101DD00
:104220002B4601E04FF0000322EA030281EA02017B
:10423000664A904201DA284601E04FF0000000F0A3
:10424000004001DA2A4601E04FF0000221EA0201B3
:1042500080EA010000EB0806019A4FF080404FF021
:104260000001B2EBD67F01D059488117C4FB06018B
:104270004FF0004842460023FCF72FF8B44202D129
:10428000444500D15046C0F100540021F20F4FF0D8
:104290008040B2EBD47F01D04D488117C6FB0401AA
:1042A00042460023FCF719F8A64202D1464500D148
:1042B000504601218300584501DD2A4601E04FF0B8
:1042C000000222F0004201DD2C4601E04FF0000424
:1042D00023EA040382EA03023C4B984201DA2846AF
:1042E00001E04FF0000000F0004001DA2B4601E051
:1042F0004FF0000322EA030280EA020030448B46BA
:104300006FF040424FEA4001904201DD2A4601E051
:104310004FF0000222F0004201DD2B4601E04FF099
:10432000000321EA030182EA01022949884201DAF5
:10433000284601E04FF0000000F0004401DB4FF0A0
:10434000000522EA050284EA0204B9F11F0F04DD28
:10435000A9F11F0004414FF01F0900252FE01D980F
:104360000021E20F50F825604FF08040B2EBD67F7D
:1043700001D017488117C4FB060142460023FBF712
:10438000ACFFB44202D1444500D150460BFA09F1CA
:10439000491E01EA000350FA09F04FEA610100D515
:1043A000491C8B4200DD401C00280DDDFF2800DB8E
:1043B000FF20109A05FB02F10D9A6D1C5054BD426E
:1043C000CDD311B0BDE8F08F0020F2E7010000E08E
:1043D000010000C02DE9FF4F83B000244FF0FF3BE8
:1043E0005CE10499039E04FA01F045420021EA0FC2
:1043F0004FF08040B2EBD67F01D0AD488117C5FBAE
:1044000006014FF000473A460023FBF766FFB5422E
:1044100002D1BD4200D1681E20F07F418246A1F149
:1044200080714FF0805000EB4116A1EB0A0580002F
:104430000021F20FB146B2EBD67F01D09C48811724
:10444000C9FB0601B8463A460023FBF746FF07467C
:10445000464501D16FF00047964801900607F80FD6
:1044600000210090B0EBD77F01D0914E491E30461D
:10447000C7FB070142460023FBF72FFF474501D149
:104480006FF0004000F0030186104FF0010000D5EE
:104490000220814200DD761C009B00214FF080400D
:1044A000B3EBD97F01D082488117C7FB090142468F
:1044B0000023FBF712FF4F4503D1474501D16FF0B1
:1044C000004032187C4B00214FF08040D60F01D0C5
:1044D00077488117C2FB0301464642460023FBF79B
:1044E000FCFE384400F0010240104FF0000100D5FE
:1044F00001218A4200DD401C00EB090200214FF03F
:104500008040B1EBD27F01D069488117019BB04652
:10451000C3FB020132460023FBF7DFFE6549461864
:1045200015F0807F01D05F4600E00027634B00213B
:104530004FF080405FEAD67C01D05D488117C6FB12
:104540000301C14642460023FBF7C7FE3840BE4385
:1045500080EA060815F0007F01D05E4600E00026E4
:10456000574B002158075FEAD87701D05048811790
:10457000C8FB03014A460023FBF7AFFE304028EAA0
:10458000060880EA080715F0806F01D05E4600E05B
:1045900000264C4B00214FF080405FEAD77C01D0D1
:1045A00043488117C7FB03014A460023FBF795FEEA
:1045B0003040B74380EA070815F0006F01D05E462F
:1045C00000E00026404B002118075FEAD87701D0B1
:1045D00037488117C8FB03014A460023FBF77DFEDD
:1045E000304028EA060880EA080715F0805F01D00D
:1045F000D84601E04FF00008344B00214FF08040D6
:10460000FE0F01D02A488117C7FB03014A46002349
:10461000FBF763FE00EA080027EA080780EA0706BE
:1046200015F0005F01D05F4600E00027284B002115
:1046300098075FEAD67C01D01D488117C6FB0301AD
:104640004A460023FBF749FE3840BE4380EA06088D
:1046500015F0804F01D05D4600E00025F2225007A2
:1046600000215FEAD87301D011488117C8FB02010D
:104670004A460023FBF731FE284028EA050880EA75
:104680000800BAF1000F10D05FF0000222F00041E4
:1046900090434140069840F82410641C05988442D9
:1046A000FFF49FAE07B0BDE8F08F5A46EEE700007A
:1046B000010000C094A8F570ABAAAA2A7BBEAF6324
:1046C000F2CBA24D6CAC162FA4AA5211B72A5802F5
:1046D00011FE0A002DE9FF4F85B09846DDF848A08D
:1046E00001209AF9004005E01AF90010A14200DB10
:1046F0000C46401C4045F7D300257DE11AF9050022
:104700000799A4EB000989457ED20699059F09FA0D
:1047100001F046420021F20F4FF08040B2EBD77F0C
:1047200001D0BA488117C6FB07014FF0004B5A462B
:104730000023FBF7D2FDBE4203D15E4501D16FF0ED
:10474000004020F07F41A1F180710F1A02904FF0DC
:10475000805000EB411280000021D30F16460392D7
:10476000B3EBD27F01D0A9488117C6FB02015A469C
:104770000023FBF7B2FD5A46964201D16FF000408C
:104780008346A34804904FEADB73584600214FF05C
:1047900080460193B3EBD07F01D09C4E491ECBFBEA
:1047A0000061304616460023FBF797FDB34501D163
:1047B0006FF0004000F0030186104FF0010000D5BB
:1047C0000220814200DD761C039A019B00214FF0FC
:1047D00080400092B3EBD27F01D08C488117009BC0
:1047E0004FF00042CBFB03010023FBF776FD009A5C
:1047F000934504D1BBF1004F01D16FF00040321856
:10480000844B4FF0804000E0F5E00021D60F01D04E
:104810007E488117C2FB03014FF000420023FBF7E3
:104820005CFD584400F0010240104FF0000100D53B
:1048300001218A4200DD401C0399421800214FF0FB
:104840008040B1EBD27F01D070488117049BC3FB3D
:1048500002014FF000420023FBF73FFD6C4900EBE3
:10486000010B17F0807001D04FF0FF306A4B0090C1
:1048700000214FF080405FEADB7601D0634881176A
:10488000CBFB03014FF000420023FBF726FD00990C
:1048900008402BEA010180EA010B17F0007001D0FB
:1048A0004FF0FF305D4B0090580700215FEADB7648
:1048B00001D056488117CBFB03014FF00042002383
:1048C000FBF70BFD009908402BEA010180EA010B80
:1048D00017F0806001D04FF0FF30514A0090002166
:1048E0004FF080405FEADB7601D048488117CBFB70
:1048F00002014FF000420023FBF7EFFC0099084053
:104900002BEA010180EA010B17F0006001D04FF0A3
:10491000FF30444B0090180700215FEADB7601D09E
:104920003A488117CBFB03014FF000420023FBF70D
:10493000D4FC009908402BEA010180EA010B17F032
:10494000805001D04FF0FF30374B009000214FF0E6
:1049500080405FEADB7601D02C488117CBFB030156
:104960004FF000420023FBF7B8FC009908402BEA07
:10497000010180EA010B17F0005001D04FF0FF3029
:104980002A4B0090980700215FEADB7601D01F4890
:104990008117CBFB03014FF000420023FBF79DFC86
:1049A000009908402BEA010180EA010B17F0804FC3
:1049B00002D04FF0FF3600E00026F2235807002116
:1049C0005FEADB7701D011488117CBFB03014FF081
:1049D00000420023FBF781FC30402BEA06014840EF
:1049E000029979B15FF0000222F00041904341400A
:1049F000139840F829106D1C4545FFF47FAE09B0AF
:104A0000BDE8F08F4FF0FF32EEE70000010000C07C
:104A100094A8F570ABAAAA2A7BBEAF63F2CBA24DD5
:104A20006CAC162FA4AA5211B72A580211FE0A0024
:104A300070B505460C4648886988884202D9AAB1F3
:104A4000002070BD92B100260CE000BF6168C6EB8B
:104A5000C6006A6801EB800102EB80001C22FBF7B4
:104A60000DFE761C6088B042F0D801E06068686096
:104A70006088688020882880012070BD30B500B330
:104A8000F9B1F2B15268E2B10F4C1368A34203D0FE
:104A90000260012913D014E00023121D07E000BFBB
:104AA00052F82350A54204D040F823505B1C8B429F
:104AB000F6D38B4205D152F82300A04201D1012048
:104AC00030BD002030BD0000DECAFAA170B50D4631
:104AD000060014461AD0CCB1104600F089FA00B195
:104AE0006088A84212D10023042109E0C3EBC3026D
:104AF000606801EB8202805820B146F823005B1CFD
:104B0000AB42F3D3AB4201D1012070BD002070BD98
:104B10000349884201D101207047002070470000FE
:104B2000DECAFAA12DE9FE4F92468946040003D061
:104B3000208E20B1656B03E00020BDE8FE8F0025CC
:104B4000002060832083207CC043800702D0302275
:104B50001121DCE0B9F1000F61D0D5B32888C0B3D2
:104B6000D9F818000026D0F8008056E0A868006840
:104B700000EB0610019052D058B3C6EBC60002906D
:104B800009EB80000121009000F03CFADBF81830BE
:104B9000596888421AD80098DBF80C208069D768D9
:104BA000D0F80CC0674511D19768D0F808C06745A8
:104BB0000CD152684068824208D1186800F061F94F
:104BC0000746584602F076F8874203D2182212218F
:104BD0009DE024E0DBF81800006800F061F902991C
:104BE00020F07E4259F8210020F07E40824201D020
:104BF0001922ECE70098406888B100988069006845
:104C000078B14146404500D208468046DDE90010B3
:104C10005A4600F08FF8761C2DB1288804E0172240
:104C2000D5E72122D3E70020B04206D9686820B139
:104C300050F826B0BBF1000F98D1BAF1000F74D034
:104C4000208E012806D9656B0C3503D0288808B161
:104C5000002658E0182259E0A868006800EB061BFF
:104C60003BD0BBF1000F38D0C6EBC60001900AEB79
:104C700080000121009000F0C5F9D9F8183059687A
:104C80008842E7D80098D9F80C208069D768D0F816
:104C90000CC06745DED19768D0F808C06745D9D108
:104CA000526840688242D5D1186800F0EAF8074699
:104CB000484601F0FFFF8742CCD3D9F818000068BE
:104CC00000F0EEF820F07E4201985AF8200020F023
:104CD0007E40824203D0192218E0172216E0009885
:104CE00040680028F9D000988069006868B14146A2
:104CF000404500D2084680464A465846009900F092
:104D000019F8761C3DB1288806E02122132120469F
:104D100000F04EFD10E70020B04206D9686820B1CF
:104D200050F82690B9F1000F96D1A4F818804FF0F2
:104D3000010002E770B504460E461546104601F024
:104D4000B9FF0146A060B06900684843E06071683F
:104D50006160726810442060A8690268920007D4FC
:104D6000D0E90223D21A11448160A9696068C86041
:104D700070BD70B50646002521E0B068006800EB04
:104D8000051488690268920005D58168A268606888
:104D900002F076FE08E0D0E90223D21A63681A44D2
:104DA000826089696068C860D4E901010844606074
:104DB0002168884201D3E068081A6D1C60600EB15A
:104DC000308800E00020A84206D97068002803D08F
:104DD00050F825100029D0D170BD2DE9F0410646CC
:104DE000002529E0B1688369096801EB0514196899
:104DF0008900D4E901120DD5986802F041FED4E98A
:104E00000101084460602168884201D3E068081A03
:104E1000606010E00A44626021688A4201D3E2685F
:104E20008A1A62608169D1E90237DB1B1A448A6001
:104E300080696168C1606D1C0EB1308800E000209F
:104E4000A84206D97068002803D050F82500002831
:104E5000C8D1BDE8F08100BF704770B579B1C0F32B
:104E6000C6156943C91D21F00704C0F34151CC4068
:104E7000FEF7C8FC00FB0540C01DC00870BD002047
:104E800070BD59B1C0F3C6125143C91D21F00701CD
:104E9000C0F34150C140C91DC80870470020704789
:104EA00030B54021C0F34342022A19D03A4A20F0DB
:104EB0007E439C1A4D01934263D028DC374AA3EB12
:104EC000020493425DD018DC402B5BD0403BB3F52D
:104ED000802350D0802B3DD0B3F5806F52D134E089
:104EE000C0F3C051C905C0F3C61241EAC21100F0B7
:104EF0007F02114341F4802144E0A4F54074F93C61
:104F000026D00F2C3AD0AC423CD125493AE0254B73
:104F1000E21A9C4229D00CDC234AA21813D0B2F525
:104F2000F83F1FD0214BD2181AD0B2F5607F29D19B
:104F300012E0A2F54072F93A10D00F2A18D0AA4216
:104F400020D11B491EE01B491CE01449C91F19E070
:104F5000194917E0194915E0194913E0194911E0F9
:104F600019490FE0184980390CE01549C91D09E0BD
:104F700014490F3106E01149803903E00E490F3121
:104F800000E0114600F080420A4300F00051114356
:104F900000F00060084330BD4004060047040400F0
:104FA0004010040007007E0000F483FF800FFEFF26
:104FB000401084004010820040080400C00004003B
:104FC0004004840040088400C000840070B514468A
:104FD0000D46064600F00CF840B17068C5EBC501FF
:104FE00010EB810002D04460012070BD002070BD34
:104FF00028B1416819B1408808B1012070470020EC
:105000007047000010B502002AD0164B1068B3EBB1
:10501000C01F03D0144BB3EBC01F01D1012000E02F
:10502000002008429069406802D01F3020F01F0025
:105030005369D9B2012900D000211C0A07E00129D7
:1050400007D0936953F821305843491C1AB12346BD
:1050500002E00123F8E700238B42F0DC002800DCAB
:10506000002010BD006000420060000208B509A1E8
:105070000968009148B101789DF80020914204D15F
:1050800004226946FBF789FA08B1002008BD012017
:1050900008BD00000384048470B505460E460D4823
:1050A000007808B9002070BD0B48006845600B48C7
:1050B00000684660094802680748016808480068B7
:1050C00000F042F90446012C01D00020EBE701205A
:1050D000E9E700001C000020240000202800002038
:1050E0001800002008B500220F49104800F08AF887
:1050F00000900098C0B218B100200D49087008BD9A
:1051000000210A48006800F0FFF80A490860002101
:105110000648006800F008F90749086001200449C2
:10512000087000BFEBE700002000002018000020FE
:105130001C00002024000020280000202DE9F04160
:10514000066C816B04460025C163CEB1D9B1012044
:10515000626CB0470CE00220626CB047E06BFEF777
:10516000D8FA07460320626CE16BB0476D1CE76319
:10517000E16B0029EFD106E0FEF7CBFA6D1CE0638E
:10518000E06B0028F8D12846BDE8F08103460020F6
:10519000996B002908D0CB600A69401C8A4203D071
:1051A000002A01D01146F6E770472DE9F041846BE3
:1051B000002594B1012600272079C00707D0216A75
:1051C000204611B18847304600E038460544206942
:1051D000A04202D008B10446EEE72846BDE8F081BF
:1051E0003EB504460D46002005210123044ACDE9C1
:1051F00000102946204600F0A1F902903EBD0000B3
:10520000140C0020F0B58FB004460E46174600215E
:105210002046FFF7E5FF0E900E98C0B210B10E9831
:105220000FB0F0BD684600F031F828B9206800F0F2
:1052300045F80E900E98F3E7002507E056F8252074
:10524000294603A8FFF7C2FE681C85B21EB1BDF84F
:105250000E00A842F2DC002507E057F82520294679
:1052600001A8FFF7B3FE681C85B21FB1BDF80600A8
:10527000A842F2DC6946206800F027F818B92068D7
:1052800000F01CF80E900E98CAE700001FB5044607
:1052900014B9002004B010BD074903C9CDE90201CB
:1052A0000549083103C9CDE9000102AA6946204633
:1052B00000F0D8F8EEE70000C8A1000838B50446B1
:1052C000204600F089F9009038BD2DE9F0410646EE
:1052D0000F463946304600F08DF90546012415B9D0
:1052E0000020BDE8F0813946284601F0ADFF0440BA
:1052F0003946284601F0D2FE0440304600F006FA56
:1053000004402046EDE7000070B504460D4614B990
:10531000034C044820602946204600F0EDF870BD9B
:10532000140C00200001C0A170B504460D4614B94C
:10533000034C044820602946204600F03FFA70BD27
:10534000140C00200001C0A170B504460D4616469D
:1053500032462946204600F001FA70BDF0B500241F
:10536000059F0460446084600D6926466D4221E01B
:10537000002D06DAD0F800C00CF1010CC0F800C016
:1053800014E0D2F808C0D7F808E0ACEB050CF445FF
:1053900006DAD0F808C00CF1010CC0F808C005E02E
:1053A000D0F804C00CF1010CC0F804C0D1F808C05A
:1053B000761C6544D3F808C0B445D9DC0568C560DF
:1053C000456805618568C0E90554C46104624C699B
:1053D0006442002515E0002C03DA8669761C86619C
:1053E0000CE05668D7F804C0361B664503DA066A37
:1053F000761C066202E0C669761CC661CE686D1C2A
:1054000034445E68AE42E6DCF0BDD0E906210123FB
:1054100022B149B18384521E826109E021B1002288
:105420008284491EC16103E08384016A491E0162CE
:10543000C16801600169416041698160704701682C
:10544000012219B1C284491E01607047416821B12F
:10545000828CC284491E41607047C2848168491EA3
:105460008160704710B570B169B162B1074C0460DA
:10547000D1E90041C0E90141D2E90012C0E90312BB
:105480000123184610BD002010BD0000DECAFAA19D
:10549000016810B1024A8A4300D000207047000022
:1054A0000001C0A130B44AB140B139B1074C136812
:1054B000A34206D130BC0C32FFF708BB30BC002041
:1054C000704730BC1C32FFF7D9BA0000DECAFAA11F
:1054D00030B44AB140B139B1064C1368A34206D189
:1054E00030BC121DFFF7F2BA30BC0020704730BC50
:1054F000FFF7C4BADECAFAA1F8B50E46FFF7C8FF37
:1055000004000AD000270097208E00B1606B694626
:10551000FEF708F9050006D00BE01022114600F056
:1055200047F90020F8BD18221121204600F040F96B
:10553000009706B135800098F8BD00002DE9F04FC6
:1055400089B00500DDE912104FF0000A564663F3FA
:105550000706CDE9011361F30F261D4F914654460E
:1055600060F31746834618D0C5F8009000F09CF908
:10557000B8B1B846BF8AC6F30721F0B2002200F0E6
:1055800060F90646C7F30721F8B2002200F059F986
:10559000864208D0D8F804400EE0F86909B0BDE8AA
:1055A000F08F3C6808E00BA0006800906846FFF7A9
:1055B0005DFD18B9D8F80840C5F800A0DDE9011074
:1055C0005A4600F03EF9C9F808002046E6E7000018
:1055D000E00902080384048410B5FFF759FF20B1E5
:1055E000BDE810400C3000F059B90148806910BD89
:1055F000E00902082DE9F04F91B00C46FFF748FF93
:10560000050013D0B4B13DA12068FFF781FA060070
:105610004FF0000B11D020680190D4E90301CDE9CF
:105620000401D4E90101CDE9020143E0002011B0F9
:10563000BDE8F08F112210215CE001212046D4F852
:1056400004A0FFF7DFFC804604F11C00D4F8209092
:1056500001211090FFF7D6FC07461422294907A81C
:10566000FBF70CF80120B8F1000F02D0ADF82200D2
:1056700002E0ADF822B0002409941FB1ADF82A0071
:10568000109802E0ADF82AB000200B90B9F1000F9D
:1056900002D10FB1132206E0BAF1000F05D1B8F123
:1056A000000F02D01222102123E0142207A901A822
:1056B000FAF7E4FF14492868884212D186F0010203
:1056C000144602A905F12000FFF7B2F968B122469D
:1056D00004A905F12800FFF7ABF940B12846FFF710
:1056E00055FD032028612846A1E7122200E013227D
:1056F0001621284600F05CF898E70000696E69748E
:1057000000000000340A02080001C0A170B5FFF7D4
:10571000BFFE002807D0017C890705D41022112183
:1057200000F046F8002070BD0B4A0168914211D18B
:105730000546FFF73AFD286C60B1AC6B54B1D5E972
:1057400010322146002098472069A04202D008B1BB
:105750000446F4E7012070BD0001C0A170B51346F6
:105760000D46FFF795FE04461A462946FFF7DAF97B
:1057700000281CD0208E08B1656B00E000250128B0
:1057800002D9666B0C360DE000260BE02846FFF7C9
:10579000F0FA2046FFF7D2FC3046FFF71EFB608B85
:1057A000401C6083608B218B8842EFD380B270BD38
:1057B000002802D00C3000F088B87047F8B50E46CB
:1057C000FFF766FE040007D000270097208E01280F
:1057D00008D9606B0C3006E010221146FFF7E8FF95
:1057E0000020F8BD00206946FDF79CFF050005D1AB
:1057F000182211212046FFF7DBFF009706B1358004
:105800000098F8BD4168D1E902014843704702465B
:105810000068010A012004E05368491E53F8213052
:1058200058430029F8D1704702460068010A012058
:1058300004E05368491E53F8213058430029F8D139
:105840007047000640EA014040EA0220704700002D
:10585000F0B500241FE000BF00EB840595ED001AB1
:1058600061EE001A81EEA01A11EE105AC5F3C75668
:10587000C6F17E07C5F3160606F50006002D00DA10
:1058800076421F2F01DD00263746F50123F81470FC
:1058900042F82450641C8C42DEDBF0BD002201681B
:1058A00002700260084670470120704710B182699B
:1058B000002A00D10846704710B1806900B1014646
:1058C00009B18868704700207047037813F0FF0F14
:1058D00001D0002070470170016862F31F21016050
:1058E0000120704710B56FF00400FDF707F915208F
:1058F00005490870084600784FF47A7110FB01F0F2
:105900000249086010BD00001000002014000020B3
:105910002DE9F04F04462DED028B99B08069018886
:1059200009B1426800E00022526832B109B1426810
:1059300000E000225268176800E00027012902D920
:1059400042680C3200E00022526842B1012902D9BB
:1059500042680C3200E000225268156800E0002521
:10596000022902D94268183200E00022526842B18E
:10597000022902D94268183200E0002252681668F3
:1059800000E0002602290BD9426812F1180F07D057
:1059900032F8183F012B03D9526812B1526800E067
:1059A00000229146032902D94268243200E00022F5
:1059B00052683AB1032902D94268243200E0002239
:1059C000526812689046626A8AB1032902D9426815
:1059D000243200E00022526842B1032902D9426811
:1059E000243200E000225268556800E00025FA6881
:1059F000022993889BB21293EB68B3F804C01FFA94
:105A00008CFCCDF804C0D3F80CC0CDF860C09B6806
:105A10001793D368159392681492228D92B20492D0
:105A2000A28D92B20392F268936802935268169222
:105A3000D9F8182092680592D8F8182092680B922D
:105A400002D94268183200E00022526862B102298D
:105A500002D94068183000E000204068806818B122
:105A60000021FFF723FF03E00020216AFFF724FF56
:105A700039682868326851B14B6843B1B1F802C047
:105A8000BCF1000F03D01B68D3ED008A01E0F7EEF4
:105A9000008A50B1436843B1B0F802C0BCF1000FB6
:105AA00003D01B6893ED008A01E0B7EE008A94F8FA
:105AB00041B0BB69B669AC69D3F80890B568D4F851
:105AC00008A01AB152680AB1146800E0002439B184
:105AD0004A682AB1498819B1516891F9006000E01B
